{
  "_format": "hh-sol-artifact-1",
  "contractName": "ClankerPitArena",
  "sourceName": "contracts/ClankerPitArena.sol",
  "abi": [
    {
      "inputs": [],
      "stateMutability": "nonpayable",
      "type": "constructor"
    },
    {
      "inputs": [],
      "name": "AgentAlreadyRegistered",
      "type": "error"
    },
    {
      "inputs": [],
      "name": "AlreadyRefunded",
      "type": "error"
    },
    {
      "inputs": [],
      "name": "AlreadySettled",
      "type": "error"
    },
    {
      "inputs": [],
      "name": "InsufficientFee",
      "type": "error"
    },
    {
      "inputs": [],
      "name": "InvalidSlot",
      "type": "error"
    },
    {
      "inputs": [],
      "name": "NoDeposit",
      "type": "error"
    },
    {
      "inputs": [],
      "name": "NotOwner",
      "type": "error"
    },
    {
      "inputs": [],
      "name": "SlotTaken",
      "type": "error"
    },
    {
      "anonymous": false,
      "inputs": [
        {
          "indexed": true,
          "internalType": "bytes32",
          "name": "agentId",
          "type": "bytes32"
        },
        {
          "indexed": true,
          "internalType": "address",
          "name": "agentOwner",
          "type": "address"
        }
      ],
      "name": "AgentRegistered",
      "type": "event"
    },
    {
      "anonymous": false,
      "inputs": [
        {
          "indexed": true,
          "internalType": "bytes32",
          "name": "matchId",
          "type": "bytes32"
        },
        {
          "indexed": true,
          "internalType": "address",
          "name": "depositorAddr",
          "type": "address"
        },
        {
          "indexed": false,
          "internalType": "uint256",
          "name": "amount",
          "type": "uint256"
        },
        {
          "indexed": false,
          "internalType": "uint8",
          "name": "slot",
          "type": "uint8"
        }
      ],
      "name": "Deposited",
      "type": "event"
    },
    {
      "anonymous": false,
      "inputs": [
        {
          "indexed": true,
          "internalType": "bytes32",
          "name": "matchId",
          "type": "bytes32"
        }
      ],
      "name": "Refunded",
      "type": "event"
    },
    {
      "anonymous": false,
      "inputs": [
        {
          "indexed": true,
          "internalType": "bytes32",
          "name": "matchId",
          "type": "bytes32"
        },
        {
          "indexed": true,
          "internalType": "address",
          "name": "winner",
          "type": "address"
        },
        {
          "indexed": false,
          "internalType": "uint256",
          "name": "payout",
          "type": "uint256"
        },
        {
          "indexed": false,
          "internalType": "uint256",
          "name": "fee",
          "type": "uint256"
        }
      ],
      "name": "Settled",
      "type": "event"
    },
    {
      "inputs": [],
      "name": "PLATFORM_FEE_BPS",
      "outputs": [
        {
          "internalType": "uint256",
          "name": "",
          "type": "uint256"
        }
      ],
      "stateMutability": "view",
      "type": "function"
    },
    {
      "inputs": [],
      "name": "REGISTRATION_FEE",
      "outputs": [
        {
          "internalType": "uint256",
          "name": "",
          "type": "uint256"
        }
      ],
      "stateMutability": "view",
      "type": "function"
    },
    {
      "inputs": [
        {
          "internalType": "bytes32",
          "name": "",
          "type": "bytes32"
        }
      ],
      "name": "agentOwner",
      "outputs": [
        {
          "internalType": "address",
          "name": "",
          "type": "address"
        }
      ],
      "stateMutability": "view",
      "type": "function"
    },
    {
      "inputs": [
        {
          "internalType": "bytes32",
          "name": "matchId",
          "type": "bytes32"
        },
        {
          "internalType": "uint8",
          "name": "slot",
          "type": "uint8"
        },
        {
          "internalType": "address",
          "name": "depositorAddr",
          "type": "address"
        }
      ],
      "name": "deposit",
      "outputs": [],
      "stateMutability": "payable",
      "type": "function"
    },
    {
      "inputs": [
        {
          "internalType": "bytes32",
          "name": "matchId",
          "type": "bytes32"
        }
      ],
      "name": "getMatch",
      "outputs": [
        {
          "internalType": "address",
          "name": "depositor0",
          "type": "address"
        },
        {
          "internalType": "address",
          "name": "depositor1",
          "type": "address"
        },
        {
          "internalType": "uint256",
          "name": "amount0",
          "type": "uint256"
        },
        {
          "internalType": "uint256",
          "name": "amount1",
          "type": "uint256"
        },
        {
          "internalType": "bool",
          "name": "settled",
          "type": "bool"
        },
        {
          "internalType": "bool",
          "name": "refunded",
          "type": "bool"
        }
      ],
      "stateMutability": "view",
      "type": "function"
    },
    {
      "inputs": [
        {
          "internalType": "bytes32",
          "name": "",
          "type": "bytes32"
        }
      ],
      "name": "matches",
      "outputs": [
        {
          "internalType": "bool",
          "name": "settled",
          "type": "bool"
        },
        {
          "internalType": "bool",
          "name": "refunded",
          "type": "bool"
        }
      ],
      "stateMutability": "view",
      "type": "function"
    },
    {
      "inputs": [],
      "name": "owner",
      "outputs": [
        {
          "internalType": "address",
          "name": "",
          "type": "address"
        }
      ],
      "stateMutability": "view",
      "type": "function"
    },
    {
      "inputs": [
        {
          "internalType": "bytes32",
          "name": "matchId",
          "type": "bytes32"
        }
      ],
      "name": "refund",
      "outputs": [],
      "stateMutability": "nonpayable",
      "type": "function"
    },
    {
      "inputs": [
        {
          "internalType": "bytes32",
          "name": "agentId",
          "type": "bytes32"
        },
        {
          "internalType": "address",
          "name": "agentOwnerAddr",
          "type": "address"
        }
      ],
      "name": "registerAgent",
      "outputs": [],
      "stateMutability": "payable",
      "type": "function"
    },
    {
      "inputs": [
        {
          "internalType": "bytes32",
          "name": "matchId",
          "type": "bytes32"
        },
        {
          "internalType": "address",
          "name": "winner",
          "type": "address"
        }
      ],
      "name": "settle",
      "outputs": [],
      "stateMutability": "nonpayable",
      "type": "function"
    },
    {
      "stateMutability": "payable",
      "type": "receive"
    }
  ],
  "bytecode": "0x60a060405234801561001057600080fd5b5033608052608051610c2461005360003960008181610139015281816102ce015281816104e1015281816107040152818161081401526109130152610c246000f3fe6080604052600436106100955760003560e01c80638daad7ef116100595780638daad7ef146101735780639407fdb7146101865780639fe9ada314610199578063ca867b3f146101ec578063fcc6077d1461022257600080fd5b8063539aa77f146100a157806364b4f751146100ca5780637249fbb6146100e55780637d4a9ab8146101075780638da5cb5b1461012757600080fd5b3661009c57005b600080fd5b3480156100ad57600080fd5b506100b76101f481565b6040519081526020015b60405180910390f35b3480156100d657600080fd5b506100b766038d7ea4c6800081565b3480156100f157600080fd5b50610105610100366004610ab8565b6102c3565b005b34801561011357600080fd5b50610105610122366004610aed565b6104d6565b34801561013357600080fd5b5061015b7f000000000000000000000000000000000000000000000000000000000000000081565b6040516001600160a01b0390911681526020016100c1565b610105610181366004610aed565b610809565b610105610194366004610b19565b610908565b3480156101a557600080fd5b506101d56101b4366004610ab8565b60016020526000908152604090206004015460ff8082169161010090041682565b6040805192151583529015156020830152016100c1565b3480156101f857600080fd5b5061015b610207366004610ab8565b6000602081905290815260409020546001600160a01b031681565b34801561022e57600080fd5b5061028761023d366004610ab8565b6000908152600160208190526040909120805491810154600282015460038301546004909301546001600160a01b0394851695929094169390929160ff8083169261010090041690565b604080516001600160a01b03978816815296909516602087015293850192909252606084015215156080830152151560a082015260c0016100c1565b336001600160a01b037f0000000000000000000000000000000000000000000000000000000000000000161461030c576040516330cd747160e01b815260040160405180910390fd5b6000818152600160205260409020600481015460ff161561033f5760405162560ff960e81b815260040160405180910390fd5b6004810154610100900460ff161561036a5760405163542f378d60e11b815260040160405180910390fd5b60048101805461ff00191661010017905560005b60028160ff1610156104a65760008260ff8316600281106103a1576103a1610b5d565b01546001600160a01b0316148015906103d357506000826002018260ff16600281106103cf576103cf610b5d565b0154115b1561049e5760008260ff8316600281106103ef576103ef610b5d565b01546001600160a01b031660028085019060ff851690811061041357610413610b5d565b0154604051600081818185875af1925050503d8060008114610451576040519150601f19603f3d011682016040523d82523d6000602084013e610456565b606091505b505090508061049c5760405162461bcd60e51b815260206004820152600d60248201526c1c99599d5b990819985a5b1959609a1b60448201526064015b60405180910390fd5b505b60010161037e565b5060405182907ffe509803c09416b28ff3d8f690c8b0c61462a892c46d5430c8fb20abe472daf090600090a25050565b336001600160a01b037f0000000000000000000000000000000000000000000000000000000000000000161461051f576040516330cd747160e01b815260040160405180910390fd5b6000828152600160205260409020600481015460ff16156105525760405162560ff960e81b815260040160405180910390fd5b6004810154610100900460ff161561057d5760405163542f378d60e11b815260040160405180910390fd5b80546001600160a01b03838116911614806105a7575080600101546001600160a01b038381169116145b6105f35760405162461bcd60e51b815260206004820152601860248201527f77696e6e6572206e6f742061207061727469636970616e7400000000000000006044820152606401610493565b6003810154600282015460009161060991610b89565b90508060000361062c57604051633a6a68b160e01b815260040160405180910390fd5b60048201805460ff19166001179055600061271061064c6101f484610ba2565b6106569190610bb9565b905060006106648284610bdb565b90506000856001600160a01b03168260405160006040518083038185875af1925050503d80600081146106b3576040519150601f19603f3d011682016040523d82523d6000602084013e6106b8565b606091505b50509050806107005760405162461bcd60e51b81526020600482015260146024820152731dda5b9b995c881c185e5bdd5d0819985a5b195960621b6044820152606401610493565b60007f00000000000000000000000000000000000000000000000000000000000000006001600160a01b03168460405160006040518083038185875af1925050503d806000811461076d576040519150601f19603f3d011682016040523d82523d6000602084013e610772565b606091505b50509050806107b95760405162461bcd60e51b8152602060048201526013602482015272199959481d1c985b9cd9995c8819985a5b1959606a1b6044820152606401610493565b60408051848152602081018690526001600160a01b038916918a917fe0ecb67aeade448be9222cf6735d02379e767bc18410573312005e0168f7dda5910160405180910390a35050505050505050565b336001600160a01b037f00000000000000000000000000000000000000000000000000000000000000001614610852576040516330cd747160e01b815260040160405180910390fd5b66038d7ea4c680003410156108795760405162976f7560e21b815260040160405180910390fd5b6000828152602081905260409020546001600160a01b0316156108af5760405163704c69f760e11b815260040160405180910390fd5b60008281526020819052604080822080546001600160a01b0319166001600160a01b0385169081179091559051909184917f39c4cbf140db417a0fa83ac9f88ce3b44f0d8b1f759eeaea09c8470dbe253f699190a35050565b336001600160a01b037f00000000000000000000000000000000000000000000000000000000000000001614610951576040516330cd747160e01b815260040160405180910390fd5b60018260ff16111561097657604051631258e44360e01b815260040160405180910390fd5b6000838152600160205260409020600481015460ff16156109a95760405162560ff960e81b815260040160405180910390fd5b6004810154610100900460ff16156109d45760405163542f378d60e11b815260040160405180910390fd5b60008160ff8516600281106109eb576109eb610b5d565b01546001600160a01b031614610a145760405163c0a105b160e01b815260040160405180910390fd5b818160ff851660028110610a2a57610a2a610b5d565b0160006101000a8154816001600160a01b0302191690836001600160a01b0316021790555034816002018460ff1660028110610a6857610a68610b5d565b01556040805134815260ff851660208201526001600160a01b0384169186917f608331485603df5be3b58a4caa9774103a685342489833c7d6636243da4587cd910160405180910390a350505050565b600060208284031215610aca57600080fd5b5035919050565b80356001600160a01b0381168114610ae857600080fd5b919050565b60008060408385031215610b0057600080fd5b82359150610b1060208401610ad1565b90509250929050565b600080600060608486031215610b2e57600080fd5b83359250602084013560ff81168114610b4657600080fd5b9150610b5460408501610ad1565b90509250925092565b634e487b7160e01b600052603260045260246000fd5b634e487b7160e01b600052601160045260246000fd5b80820180821115610b9c57610b9c610b73565b92915050565b8082028115828204841417610b9c57610b9c610b73565b600082610bd657634e487b7160e01b600052601260045260246000fd5b500490565b81810381811115610b9c57610b9c610b7356fea26469706673582212208af83b8491a0f9e2e9b3fab5f39ffb0b23d6d5d3008aafa7c8c7738a9492765a64736f6c63430008180033",
  "linkReferences": {},
  "deployedLinkReferences": {}
}